{
  "contractName": "DStorage",
  "abi": [
    {
      "inputs": [],
      "payable": false,
      "stateMutability": "nonpayable",
      "type": "constructor"
    },
    {
      "anonymous": false,
      "inputs": [
        {
          "indexed": false,
          "internalType": "uint256",
          "name": "fileId",
          "type": "uint256"
        },
        {
          "indexed": false,
          "internalType": "string",
          "name": "fileHash",
          "type": "string"
        },
        {
          "indexed": false,
          "internalType": "uint256",
          "name": "fileSize",
          "type": "uint256"
        },
        {
          "indexed": false,
          "internalType": "string",
          "name": "fileType",
          "type": "string"
        },
        {
          "indexed": false,
          "internalType": "string",
          "name": "fileName",
          "type": "string"
        },
        {
          "indexed": false,
          "internalType": "uint256",
          "name": "fileDescription",
          "type": "uint256"
        },
        {
          "indexed": false,
          "internalType": "uint256",
          "name": "uploadTime",
          "type": "uint256"
        },
        {
          "indexed": false,
          "internalType": "uint256",
          "name": "voted",
          "type": "uint256"
        },
        {
          "indexed": false,
          "internalType": "address payable",
          "name": "uploader",
          "type": "address"
        }
      ],
      "name": "FileUploaded",
      "type": "event"
    },
    {
      "anonymous": false,
      "inputs": [
        {
          "indexed": false,
          "internalType": "address",
          "name": "from",
          "type": "address"
        }
      ],
      "name": "Sent",
      "type": "event"
    },
    {
      "constant": true,
      "inputs": [
        {
          "internalType": "address",
          "name": "",
          "type": "address"
        }
      ],
      "name": "all",
      "outputs": [
        {
          "internalType": "uint256",
          "name": "",
          "type": "uint256"
        }
      ],
      "payable": false,
      "stateMutability": "view",
      "type": "function"
    },
    {
      "constant": true,
      "inputs": [
        {
          "internalType": "address",
          "name": "",
          "type": "address"
        }
      ],
      "name": "alli",
      "outputs": [
        {
          "internalType": "uint256",
          "name": "",
          "type": "uint256"
        }
      ],
      "payable": false,
      "stateMutability": "view",
      "type": "function"
    },
    {
      "constant": true,
      "inputs": [
        {
          "internalType": "address",
          "name": "",
          "type": "address"
        }
      ],
      "name": "balances",
      "outputs": [
        {
          "internalType": "uint256",
          "name": "",
          "type": "uint256"
        }
      ],
      "payable": false,
      "stateMutability": "view",
      "type": "function"
    },
    {
      "constant": true,
      "inputs": [
        {
          "internalType": "address",
          "name": "",
          "type": "address"
        }
      ],
      "name": "d",
      "outputs": [
        {
          "internalType": "uint256",
          "name": "",
          "type": "uint256"
        }
      ],
      "payable": false,
      "stateMutability": "view",
      "type": "function"
    },
    {
      "constant": true,
      "inputs": [],
      "name": "diviCount",
      "outputs": [
        {
          "internalType": "uint256",
          "name": "",
          "type": "uint256"
        }
      ],
      "payable": false,
      "stateMutability": "view",
      "type": "function"
    },
    {
      "constant": true,
      "inputs": [
        {
          "internalType": "uint256",
          "name": "",
          "type": "uint256"
        }
      ],
      "name": "dividends",
      "outputs": [
        {
          "internalType": "address",
          "name": "investor",
          "type": "address"
        },
        {
          "internalType": "uint256",
          "name": "no_tokens",
          "type": "uint256"
        },
        {
          "internalType": "address payable",
          "name": "uploader",
          "type": "address"
        }
      ],
      "payable": false,
      "stateMutability": "view",
      "type": "function"
    },
    {
      "constant": true,
      "inputs": [],
      "name": "fileCoun",
      "outputs": [
        {
          "internalType": "uint256",
          "name": "",
          "type": "uint256"
        }
      ],
      "payable": false,
      "stateMutability": "view",
      "type": "function"
    },
    {
      "constant": true,
      "inputs": [],
      "name": "fileCount",
      "outputs": [
        {
          "internalType": "uint256",
          "name": "",
          "type": "uint256"
        }
      ],
      "payable": false,
      "stateMutability": "view",
      "type": "function"
    },
    {
      "constant": true,
      "inputs": [
        {
          "internalType": "uint256",
          "name": "",
          "type": "uint256"
        }
      ],
      "name": "files",
      "outputs": [
        {
          "internalType": "uint256",
          "name": "fileId",
          "type": "uint256"
        },
        {
          "internalType": "string",
          "name": "fileHash",
          "type": "string"
        },
        {
          "internalType": "uint256",
          "name": "fileSize",
          "type": "uint256"
        },
        {
          "internalType": "string",
          "name": "fileType",
          "type": "string"
        },
        {
          "internalType": "string",
          "name": "fileName",
          "type": "string"
        },
        {
          "internalType": "uint256",
          "name": "fileDescription",
          "type": "uint256"
        },
        {
          "internalType": "uint256",
          "name": "uploadTime",
          "type": "uint256"
        },
        {
          "internalType": "bool",
          "name": "t",
          "type": "bool"
        },
        {
          "internalType": "uint256",
          "name": "voted",
          "type": "uint256"
        },
        {
          "internalType": "bool",
          "name": "vote",
          "type": "bool"
        },
        {
          "internalType": "address payable",
          "name": "uploader",
          "type": "address"
        }
      ],
      "payable": false,
      "stateMutability": "view",
      "type": "function"
    },
    {
      "constant": true,
      "inputs": [
        {
          "internalType": "address",
          "name": "",
          "type": "address"
        }
      ],
      "name": "filess",
      "outputs": [
        {
          "internalType": "uint256",
          "name": "fileId",
          "type": "uint256"
        },
        {
          "internalType": "string",
          "name": "fileHash",
          "type": "string"
        },
        {
          "internalType": "uint256",
          "name": "fileSize",
          "type": "uint256"
        },
        {
          "internalType": "string",
          "name": "fileType",
          "type": "string"
        },
        {
          "internalType": "string",
          "name": "fileName",
          "type": "string"
        },
        {
          "internalType": "uint256",
          "name": "fileDescription",
          "type": "uint256"
        },
        {
          "internalType": "uint256",
          "name": "uploadTime",
          "type": "uint256"
        },
        {
          "internalType": "bool",
          "name": "t",
          "type": "bool"
        },
        {
          "internalType": "uint256",
          "name": "voted",
          "type": "uint256"
        },
        {
          "internalType": "bool",
          "name": "vote",
          "type": "bool"
        },
        {
          "internalType": "address payable",
          "name": "uploader",
          "type": "address"
        }
      ],
      "payable": false,
      "stateMutability": "view",
      "type": "function"
    },
    {
      "constant": true,
      "inputs": [
        {
          "internalType": "address",
          "name": "",
          "type": "address"
        }
      ],
      "name": "fun",
      "outputs": [
        {
          "internalType": "uint256",
          "name": "",
          "type": "uint256"
        }
      ],
      "payable": false,
      "stateMutability": "view",
      "type": "function"
    },
    {
      "constant": true,
      "inputs": [
        {
          "internalType": "address",
          "name": "",
          "type": "address"
        }
      ],
      "name": "funi",
      "outputs": [
        {
          "internalType": "uint256",
          "name": "",
          "type": "uint256"
        }
      ],
      "payable": false,
      "stateMutability": "view",
      "type": "function"
    },
    {
      "constant": true,
      "inputs": [
        {
          "internalType": "uint256",
          "name": "",
          "type": "uint256"
        }
      ],
      "name": "hashArray",
      "outputs": [
        {
          "internalType": "string",
          "name": "",
          "type": "string"
        }
      ],
      "payable": false,
      "stateMutability": "view",
      "type": "function"
    },
    {
      "constant": true,
      "inputs": [
        {
          "internalType": "address",
          "name": "",
          "type": "address"
        }
      ],
      "name": "highrisk",
      "outputs": [
        {
          "internalType": "uint256",
          "name": "",
          "type": "uint256"
        }
      ],
      "payable": false,
      "stateMutability": "view",
      "type": "function"
    },
    {
      "constant": true,
      "inputs": [
        {
          "internalType": "address",
          "name": "",
          "type": "address"
        }
      ],
      "name": "lowrisk",
      "outputs": [
        {
          "internalType": "uint256",
          "name": "",
          "type": "uint256"
        }
      ],
      "payable": false,
      "stateMutability": "view",
      "type": "function"
    },
    {
      "constant": true,
      "inputs": [
        {
          "internalType": "address",
          "name": "",
          "type": "address"
        }
      ],
      "name": "mediumrisk",
      "outputs": [
        {
          "internalType": "uint256",
          "name": "",
          "type": "uint256"
        }
      ],
      "payable": false,
      "stateMutability": "view",
      "type": "function"
    },
    {
      "constant": true,
      "inputs": [],
      "name": "name",
      "outputs": [
        {
          "internalType": "string",
          "name": "",
          "type": "string"
        }
      ],
      "payable": false,
      "stateMutability": "view",
      "type": "function"
    },
    {
      "constant": true,
      "inputs": [
        {
          "internalType": "address",
          "name": "",
          "type": "address"
        }
      ],
      "name": "name1",
      "outputs": [
        {
          "internalType": "string",
          "name": "",
          "type": "string"
        }
      ],
      "payable": false,
      "stateMutability": "view",
      "type": "function"
    },
    {
      "constant": true,
      "inputs": [
        {
          "internalType": "address",
          "name": "",
          "type": "address"
        }
      ],
      "name": "name1i",
      "outputs": [
        {
          "internalType": "string",
          "name": "",
          "type": "string"
        }
      ],
      "payable": false,
      "stateMutability": "view",
      "type": "function"
    },
    {
      "constant": true,
      "inputs": [
        {
          "internalType": "address",
          "name": "",
          "type": "address"
        }
      ],
      "name": "occ",
      "outputs": [
        {
          "internalType": "uint256",
          "name": "",
          "type": "uint256"
        }
      ],
      "payable": false,
      "stateMutability": "view",
      "type": "function"
    },
    {
      "constant": true,
      "inputs": [
        {
          "internalType": "address",
          "name": "",
          "type": "address"
        }
      ],
      "name": "occi",
      "outputs": [
        {
          "internalType": "uint256",
          "name": "",
          "type": "uint256"
        }
      ],
      "payable": false,
      "stateMutability": "view",
      "type": "function"
    },
    {
      "constant": true,
      "inputs": [
        {
          "internalType": "address",
          "name": "",
          "type": "address"
        }
      ],
      "name": "password",
      "outputs": [
        {
          "internalType": "uint256",
          "name": "",
          "type": "uint256"
        }
      ],
      "payable": false,
      "stateMutability": "view",
      "type": "function"
    },
    {
      "constant": true,
      "inputs": [
        {
          "internalType": "address",
          "name": "",
          "type": "address"
        }
      ],
      "name": "passwordi",
      "outputs": [
        {
          "internalType": "uint256",
          "name": "",
          "type": "uint256"
        }
      ],
      "payable": false,
      "stateMutability": "view",
      "type": "function"
    },
    {
      "constant": true,
      "inputs": [],
      "name": "psw",
      "outputs": [
        {
          "internalType": "uint256",
          "name": "",
          "type": "uint256"
        }
      ],
      "payable": false,
      "stateMutability": "view",
      "type": "function"
    },
    {
      "constant": true,
      "inputs": [
        {
          "internalType": "uint256",
          "name": "",
          "type": "uint256"
        }
      ],
      "name": "votingsss",
      "outputs": [
        {
          "internalType": "bool",
          "name": "",
          "type": "bool"
        }
      ],
      "payable": false,
      "stateMutability": "view",
      "type": "function"
    },
    {
      "constant": false,
      "inputs": [
        {
          "internalType": "uint256",
          "name": "pass",
          "type": "uint256"
        },
        {
          "internalType": "string",
          "name": "_nam",
          "type": "string"
        }
      ],
      "name": "login",
      "outputs": [],
      "payable": false,
      "stateMutability": "nonpayable",
      "type": "function"
    },
    {
      "constant": false,
      "inputs": [
        {
          "internalType": "uint256",
          "name": "pass",
          "type": "uint256"
        },
        {
          "internalType": "string",
          "name": "_nam",
          "type": "string"
        }
      ],
      "name": "login_invest",
      "outputs": [],
      "payable": false,
      "stateMutability": "nonpayable",
      "type": "function"
    },
    {
      "constant": false,
      "inputs": [
        {
          "internalType": "address",
          "name": "receiver",
          "type": "address"
        },
        {
          "internalType": "uint256",
          "name": "amount",
          "type": "uint256"
        },
        {
          "internalType": "uint256",
          "name": "opt",
          "type": "uint256"
        }
      ],
      "name": "transfer",
      "outputs": [],
      "payable": false,
      "stateMutability": "nonpayable",
      "type": "function"
    },
    {
      "constant": false,
      "inputs": [],
      "name": "div",
      "outputs": [],
      "payable": false,
      "stateMutability": "nonpayable",
      "type": "function"
    },
    {
      "constant": false,
      "inputs": [],
      "name": "div1",
      "outputs": [],
      "payable": false,
      "stateMutability": "nonpayable",
      "type": "function"
    },
    {
      "constant": false,
      "inputs": [
        {
          "internalType": "string",
          "name": "_nam",
          "type": "string"
        }
      ],
      "name": "logout",
      "outputs": [],
      "payable": false,
      "stateMutability": "nonpayable",
      "type": "function"
    },
    {
      "constant": false,
      "inputs": [
        {
          "internalType": "string",
          "name": "_nam",
          "type": "string"
        }
      ],
      "name": "logoutin",
      "outputs": [],
      "payable": false,
      "stateMutability": "nonpayable",
      "type": "function"
    },
    {
      "constant": true,
      "inputs": [
        {
          "internalType": "uint256",
          "name": "i",
          "type": "uint256"
        }
      ],
      "name": "checkWinninProposalWithReturnValue",
      "outputs": [
        {
          "internalType": "bool",
          "name": "",
          "type": "bool"
        }
      ],
      "payable": false,
      "stateMutability": "view",
      "type": "function"
    },
    {
      "constant": false,
      "inputs": [
        {
          "internalType": "bool",
          "name": "_vote",
          "type": "bool"
        },
        {
          "internalType": "uint256",
          "name": "i",
          "type": "uint256"
        }
      ],
      "name": "voting",
      "outputs": [],
      "payable": true,
      "stateMutability": "payable",
      "type": "function"
    },
    {
      "constant": false,
      "inputs": [
        {
          "internalType": "string",
          "name": "_fileHash",
          "type": "string"
        },
        {
          "internalType": "uint256",
          "name": "_fileSize",
          "type": "uint256"
        },
        {
          "internalType": "string",
          "name": "_fileType",
          "type": "string"
        },
        {
          "internalType": "string",
          "name": "_fileName",
          "type": "string"
        },
        {
          "internalType": "uint256",
          "name": "_fileDescription",
          "type": "uint256"
        }
      ],
      "name": "uploadFile",
      "outputs": [],
      "payable": false,
      "stateMutability": "nonpayable",
      "type": "function"
    }
  ],
  "bytecode": "0x60806040526040518060400160405280600881526020017f4453746f726167650000000000000000000000000000000000000000000000008152506000908051906020019062000051929190620001a3565b506000600155607b600255600060035560646040519080825280602002602001820160405280156200009857816020015b6060815260200190600190039081620000825790505b5060069080519060200190620000b09291906200022a565b5060006009556040518060400160405280600381526020017f77656c00000000000000000000000000000000000000000000000000000000008152506019908051906020019062000103929190620001a3565b506064604051908082528060200260200182016040528015620001355781602001602082028038833980820191505090505b50601a90805190602001906200014d92919062000291565b503480156200015b57600080fd5b5033600760006101000a81548173ffffffffffffffffffffffffffffffffffffffff021916908373ffffffffffffffffffffffffffffffffffffffff1602179055506200049d565b828054600181600116156101000203166002900490600052602060002090601f016020900481019282601f10620001e657805160ff191683800117855562000217565b8280016001018555821562000217579182015b8281111562000216578251825591602001919060010190620001f9565b5b5090506200022691906200033e565b5090565b8280548282559060005260206000209081019282156200027e579160200282015b828111156200027d5782518290805190602001906200026c92919062000366565b50916020019190600101906200024b565b5b5090506200028d9190620003ed565b5090565b82805482825590600052602060002090601f016020900481019282156200032b5791602002820160005b83821115620002fa57835183826101000a81548160ff0219169083151502179055509260200192600101602081600001049283019260010302620002bb565b8015620003295782816101000a81549060ff0219169055600101602081600001049283019260010302620002fa565b505b5090506200033a91906200041e565b5090565b6200036391905b808211156200035f57600081600090555060010162000345565b5090565b90565b828054600181600116156101000203166002900490600052602060002090601f016020900481019282601f10620003a957805160ff1916838001178555620003da565b82800160010185558215620003da579182015b82811115620003d9578251825591602001919060010190620003bc565b5b509050620003e991906200033e565b5090565b6200041b91905b808211156200041757600081816200040d919062000451565b50600101620003f4565b5090565b90565b6200044e91905b808211156200044a57600081816101000a81549060ff02191690555060010162000425565b5090565b90565b50805460018160011615610100020316600290046000825580601f106200047957506200049a565b601f0160209004906000526020600020908101906200049991906200033e565b5b50565b613fb380620004ad6000396000f3fe6080604052600436106102045760003560e01c8063814b3fe011610118578063ce8a6ce7116100a0578063e5981da71161006f578063e5981da714611316578063e5b883ad1461137b578063ec861356146113a6578063f4c714b41461140b578063f9fa48c31461160357610204565b8063ce8a6ce714611108578063d573a00314611133578063d9a9955414611198578063e0fdae081461126257610204565b8063942aeee7116100e7578063942aeee714610ee45780639788802f14610f49578063b186111514610fae578063b5f30ee914611013578063c0f216861461103e57610204565b8063814b3fe014610d2b5780638565416f14610de05780638ac634d214610e455780638e4d78f614610eaa57610204565b80632441afce1161019b578063439535191161016a57806343953519146109645780634cbee8131461098f57806358974bcf14610a575780635beb1ea414610abc57806366253f2e14610b2157610204565b80632441afce1461077557806327e235e3146107da5780632c4f5a171461083f57806336078f061461091157610204565b80630f1f0dd5116101d75780630f1f0dd5146105235780631a6f29a4146105eb57806321ee307f1461063e5780632263546d146106a357610204565b8063015205e61461020957806303cf79c41461022057806306fdde031461042e578063095bcdb6146104be575b600080fd5b34801561021557600080fd5b5061021e61161a565b005b34801561022c57600080fd5b5061026f6004803603602081101561024357600080fd5b81019080803573ffffffffffffffffffffffffffffffffffffffff16906020019092919050505061172a565b604051808c8152602001806020018b815260200180602001806020018a815260200189815260200188151515158152602001878152602001861515151581526020018573ffffffffffffffffffffffffffffffffffffffff1673ffffffffffffffffffffffffffffffffffffffff16815260200184810384528e818151815260200191508051906020019080838360005b8381101561031b578082015181840152602081019050610300565b50505050905090810190601f1680156103485780820380516001836020036101000a031916815260200191505b5084810383528c818151815260200191508051906020019080838360005b83811015610381578082015181840152602081019050610366565b50505050905090810190601f1680156103ae5780820380516001836020036101000a031916815260200191505b5084810382528b818151815260200191508051906020019080838360005b838110156103e75780820151818401526020810190506103cc565b50505050905090810190601f1680156104145780820380516001836020036101000a031916815260200191505b509e50505050505050505050505050505060405180910390f35b34801561043a57600080fd5b50610443611986565b6040518080602001828103825283818151815260200191508051906020019080838360005b83811015610483578082015181840152602081019050610468565b50505050905090810190601f1680156104b05780820380516001836020036101000a031916815260200191505b509250505060405180910390f35b3480156104ca57600080fd5b50610521600480360360608110156104e157600080fd5b81019080803573ffffffffffffffffffffffffffffffffffffffff1690602001909291908035906020019092919080359060200190929190505050611a24565b005b34801561052f57600080fd5b506105e96004803603602081101561054657600080fd5b810190808035906020019064010000000081111561056357600080fd5b82018360208201111561057557600080fd5b8035906020019184600183028401116401000000008311171561059757600080fd5b91908080601f016020809104026020016040519081016040528093929190818152602001838380828437600081840152601f19601f820116905080830192505050505050509192919290505050611d21565b005b3480156105f757600080fd5b506106246004803603602081101561060e57600080fd5b8101908080359060200190929190505050611d69565b604051808215151515815260200191505060405180910390f35b34801561064a57600080fd5b5061068d6004803603602081101561066157600080fd5b81019080803573ffffffffffffffffffffffffffffffffffffffff169060200190929190505050611d9a565b6040518082815260200191505060405180910390f35b3480156106af57600080fd5b50610773600480360360408110156106c657600080fd5b8101908080359060200190929190803590602001906401000000008111156106ed57600080fd5b8201836020820111156106ff57600080fd5b8035906020019184600183028401116401000000008311171561072157600080fd5b91908080601f016020809104026020016040519081016040528093929190818152602001838380828437600081840152601f19601f820116905080830192505050505050509192919290505050611db2565b005b34801561078157600080fd5b506107c46004803603602081101561079857600080fd5b81019080803573ffffffffffffffffffffffffffffffffffffffff169060200190929190505050612392565b6040518082815260200191505060405180910390f35b3480156107e657600080fd5b50610829600480360360208110156107fd57600080fd5b81019080803573ffffffffffffffffffffffffffffffffffffffff1690602001909291905050506123aa565b6040518082815260200191505060405180910390f35b34801561084b57600080fd5b5061090f6004803603604081101561086257600080fd5b81019080803590602001909291908035906020019064010000000081111561088957600080fd5b82018360208201111561089b57600080fd5b803590602001918460018302840111640100000000831117156108bd57600080fd5b91908080601f016020809104026020016040519081016040528093929190818152602001838380828437600081840152601f19601f8201169050808301925050505050505091929192905050506123c2565b005b34801561091d57600080fd5b5061094a6004803603602081101561093457600080fd5b81019080803590602001909291905050506129a2565b604051808215151515815260200191505060405180910390f35b34801561097057600080fd5b50610979612aa1565b6040518082815260200191505060405180910390f35b34801561099b57600080fd5b50610a55600480360360208110156109b257600080fd5b81019080803590602001906401000000008111156109cf57600080fd5b8201836020820111156109e157600080fd5b80359060200191846001830284011164010000000083111715610a0357600080fd5b91908080601f016020809104026020016040519081016040528093929190818152602001838380828437600081840152601f19601f820116905080830192505050505050509192919290505050612aa7565b005b348015610a6357600080fd5b50610aa660048036036020811015610a7a57600080fd5b81019080803573ffffffffffffffffffffffffffffffffffffffff169060200190929190505050612aef565b6040518082815260200191505060405180910390f35b348015610ac857600080fd5b50610b0b60048036036020811015610adf57600080fd5b81019080803573ffffffffffffffffffffffffffffffffffffffff169060200190929190505050612b07565b6040518082815260200191505060405180910390f35b348015610b2d57600080fd5b50610d29600480360360a0811015610b4457600080fd5b8101908080359060200190640100000000811115610b6157600080fd5b820183602082011115610b7357600080fd5b80359060200191846001830284011164010000000083111715610b9557600080fd5b91908080601f016020809104026020016040519081016040528093929190818152602001838380828437600081840152601f19601f8201169050808301925050505050505091929192908035906020019092919080359060200190640100000000811115610c0257600080fd5b820183602082011115610c1457600080fd5b80359060200191846001830284011164010000000083111715610c3657600080fd5b91908080601f016020809104026020016040519081016040528093929190818152602001838380828437600081840152601f19601f82011690508083019250505050505050919291929080359060200190640100000000811115610c9957600080fd5b820183602082011115610cab57600080fd5b80359060200191846001830284011164010000000083111715610ccd57600080fd5b91908080601f016020809104026020016040519081016040528093929190818152602001838380828437600081840152601f19601f82011690508083019250505050505050919291929080359060200190929190505050612b1f565b005b348015610d3757600080fd5b50610d6460048036036020811015610d4e57600080fd5b81019080803590602001909291905050506133ce565b604051808473ffffffffffffffffffffffffffffffffffffffff1673ffffffffffffffffffffffffffffffffffffffff1681526020018381526020018273ffffffffffffffffffffffffffffffffffffffff1673ffffffffffffffffffffffffffffffffffffffff168152602001935050505060405180910390f35b348015610dec57600080fd5b50610e2f60048036036020811015610e0357600080fd5b81019080803573ffffffffffffffffffffffffffffffffffffffff169060200190929190505050613438565b6040518082815260200191505060405180910390f35b348015610e5157600080fd5b50610e9460048036036020811015610e6857600080fd5b81019080803573ffffffffffffffffffffffffffffffffffffffff169060200190929190505050613450565b6040518082815260200191505060405180910390f35b610ee260048036036040811015610ec057600080fd5b8101908080351515906020019092919080359060200190929190505050613468565b005b348015610ef057600080fd5b50610f3360048036036020811015610f0757600080fd5b81019080803573ffffffffffffffffffffffffffffffffffffffff169060200190929190505050613835565b6040518082815260200191505060405180910390f35b348015610f5557600080fd5b50610f9860048036036020811015610f6c57600080fd5b81019080803573ffffffffffffffffffffffffffffffffffffffff16906020019092919050505061384d565b6040518082815260200191505060405180910390f35b348015610fba57600080fd5b50610ffd60048036036020811015610fd157600080fd5b81019080803573ffffffffffffffffffffffffffffffffffffffff169060200190929190505050613865565b6040518082815260200191505060405180910390f35b34801561101f57600080fd5b5061102861387d565b6040518082815260200191505060405180910390f35b34801561104a57600080fd5b5061108d6004803603602081101561106157600080fd5b81019080803573ffffffffffffffffffffffffffffffffffffffff169060200190929190505050613883565b6040518080602001828103825283818151815260200191508051906020019080838360005b838110156110cd5780820151818401526020810190506110b2565b50505050905090810190601f1680156110fa5780820380516001836020036101000a031916815260200191505b509250505060405180910390f35b34801561111457600080fd5b5061111d613933565b6040518082815260200191505060405180910390f35b34801561113f57600080fd5b506111826004803603602081101561115657600080fd5b81019080803573ffffffffffffffffffffffffffffffffffffffff169060200190929190505050613939565b6040518082815260200191505060405180910390f35b3480156111a457600080fd5b506111e7600480360360208110156111bb57600080fd5b81019080803573ffffffffffffffffffffffffffffffffffffffff169060200190929190505050613951565b6040518080602001828103825283818151815260200191508051906020019080838360005b8381101561122757808201518184015260208101905061120c565b50505050905090810190601f1680156112545780820380516001836020036101000a031916815260200191505b509250505060405180910390f35b34801561126e57600080fd5b5061129b6004803603602081101561128557600080fd5b8101908080359060200190929190505050613a01565b6040518080602001828103825283818151815260200191508051906020019080838360005b838110156112db5780820151818401526020810190506112c0565b50505050905090810190601f1680156113085780820380516001836020036101000a031916815260200191505b509250505060405180910390f35b34801561132257600080fd5b506113656004803603602081101561133957600080fd5b81019080803573ffffffffffffffffffffffffffffffffffffffff169060200190929190505050613aba565b6040518082815260200191505060405180910390f35b34801561138757600080fd5b50611390613ad2565b6040518082815260200191505060405180910390f35b3480156113b257600080fd5b506113f5600480360360208110156113c957600080fd5b81019080803573ffffffffffffffffffffffffffffffffffffffff169060200190929190505050613ad8565b6040518082815260200191505060405180910390f35b34801561141757600080fd5b506114446004803603602081101561142e57600080fd5b8101908080359060200190929190505050613af0565b604051808c8152602001806020018b815260200180602001806020018a815260200189815260200188151515158152602001878152602001861515151581526020018573ffffffffffffffffffffffffffffffffffffffff1673ffffffffffffffffffffffffffffffffffffffff16815260200184810384528e818151815260200191508051906020019080838360005b838110156114f05780820151818401526020810190506114d5565b50505050905090810190601f16801561151d5780820380516001836020036101000a031916815260200191505b5084810383528c818151815260200191508051906020019080838360005b8381101561155657808201518184015260208101905061153b565b50505050905090810190601f1680156115835780820380516001836020036101000a031916815260200191505b5084810382528b818151815260200191508051906020019080838360005b838110156115bc5780820151818401526020810190506115a1565b50505050905090810190601f1680156115e95780820380516001836020036101000a031916815260200191505b509e50505050505050505050505050505060405180910390f35b34801561160f57600080fd5b50611618613d4c565b005b61012c600b600073d79022e3f4e72a56ca6ad476b050390648bc572773ffffffffffffffffffffffffffffffffffffffff1673ffffffffffffffffffffffffffffffffffffffff16815260200190815260200160002081905550610168600b600073032597d82f339d8f253ee6ae5e7ee5f5ac4ebc2773ffffffffffffffffffffffffffffffffffffffff1673ffffffffffffffffffffffffffffffffffffffff1681526020019081526020016000208190555061017c600b600073add526bde16c87d68e173624cb68ceafa95c679573ffffffffffffffffffffffffffffffffffffffff1673ffffffffffffffffffffffffffffffffffffffff16815260200190815260200160002081905550565b6005602052806000526040600020600091509050806000015490806001018054600181600116156101000203166002900480601f0160208091040260200160405190810160405280929190818152602001828054600181600116156101000203166002900480156117dc5780601f106117b1576101008083540402835291602001916117dc565b820191906000526020600020905b8154815290600101906020018083116117bf57829003601f168201915b505050505090806002015490806003018054600181600116156101000203166002900480601f0160208091040260200160405190810160405280929190818152602001828054600181600116156101000203166002900480156118805780601f1061185557610100808354040283529160200191611880565b820191906000526020600020905b81548152906001019060200180831161186357829003601f168201915b505050505090806004018054600181600116156101000203166002900480601f01602080910402602001604051908101604052809291908181526020018280546001816001161561010002031660029004801561191e5780601f106118f35761010080835404028352916020019161191e565b820191906000526020600020905b81548152906001019060200180831161190157829003601f168201915b5050505050908060050154908060060154908060070160009054906101000a900460ff16908060080154908060090160009054906101000a900460ff16908060090160019054906101000a900473ffffffffffffffffffffffffffffffffffffffff1690508b565b60008054600181600116156101000203166002900480601f016020809104026020016040519081016040528092919081815260200182805460018160011615610100020316600290048015611a1c5780601f106119f157610100808354040283529160200191611a1c565b820191906000526020600020905b8154815290600101906020018083116119ff57829003601f168201915b505050505081565b6001811415611acd5781600c60003373ffffffffffffffffffffffffffffffffffffffff1673ffffffffffffffffffffffffffffffffffffffff168152602001908152602001600020600082825401925050819055506064600a60008573ffffffffffffffffffffffffffffffffffffffff1673ffffffffffffffffffffffffffffffffffffffff16815260200190815260200160002060008282540392505081905550611c13565b6002811415611b765781600e60003373ffffffffffffffffffffffffffffffffffffffff1673ffffffffffffffffffffffffffffffffffffffff16815260200190815260200160002060008282540192505081905550606a600a60008573ffffffffffffffffffffffffffffffffffffffff1673ffffffffffffffffffffffffffffffffffffffff16815260200190815260200160002060008282540392505081905550611c12565b81600d60003373ffffffffffffffffffffffffffffffffffffffff1673ffffffffffffffffffffffffffffffffffffffff16815260200190815260200160002060008282540192505081905550606f600a60008573ffffffffffffffffffffffffffffffffffffffff1673ffffffffffffffffffffffffffffffffffffffff168152602001908152602001600020600082825403925050819055505b5b60096000815480929190600101919050555060405180606001604052808473ffffffffffffffffffffffffffffffffffffffff1681526020018381526020013373ffffffffffffffffffffffffffffffffffffffff1681525060086000600954815260200190815260200160002060008201518160000160006101000a81548173ffffffffffffffffffffffffffffffffffffffff021916908373ffffffffffffffffffffffffffffffffffffffff1602179055506020820151816001015560408201518160020160006101000a81548173ffffffffffffffffffffffffffffffffffffffff021916908373ffffffffffffffffffffffffffffffffffffffff160217905550905050505050565b6000601460003373ffffffffffffffffffffffffffffffffffffffff1673ffffffffffffffffffffffffffffffffffffffff1681526020019081526020016000208190555050565b601a8181548110611d7657fe5b9060005260206000209060209182820401919006915054906101000a900460ff1681565b60146020528060005260406000206000915090505481565b60606040518060400160405280600581526020017f6f776e657200000000000000000000000000000000000000000000000000000081525090506060601860003373ffffffffffffffffffffffffffffffffffffffff1673ffffffffffffffffffffffffffffffffffffffff1681526020019081526020016000208054600181600116156101000203166002900480601f016020809104026020016040519081016040528092919081815260200182805460018160011615610100020316600290048015611ec15780601f10611e9657610100808354040283529160200191611ec1565b820191906000526020600020905b815481529060010190602001808311611ea457829003601f168201915b505050505090506001601260003373ffffffffffffffffffffffffffffffffffffffff1673ffffffffffffffffffffffffffffffffffffffff16815260200190815260200160002054141561213a5783601660003373ffffffffffffffffffffffffffffffffffffffff1673ffffffffffffffffffffffffffffffffffffffff1681526020019081526020016000205414156120d1576001601460003373ffffffffffffffffffffffffffffffffffffffff1673ffffffffffffffffffffffffffffffffffffffff16815260200190815260200160002081905550806040516020018082805190602001908083835b60208310611fd35780518252602082019150602081019050602083039250611fb0565b6001836020036101000a03801982511681845116808217855250505050505090500191505060405160208183030381529060405280519060200120826040516020018082805190602001908083835b602083106120455780518252602082019150602081019050602083039250612022565b6001836020036101000a0380198251168184511680821785525050505050509050019150506040516020818303038152906040528051906020012014156120cc576001601360003373ffffffffffffffffffffffffffffffffffffffff1673ffffffffffffffffffffffffffffffffffffffff168152602001908152602001600020819055505b612139565b7fad9eefc313550eb26658f0b86c43d562b31167aa21d08ad7c5989630d6f0cd1c33604051808273ffffffffffffffffffffffffffffffffffffffff1673ffffffffffffffffffffffffffffffffffffffff16815260200191505060405180910390a1600080fd5b5b83601660003373ffffffffffffffffffffffffffffffffffffffff1673ffffffffffffffffffffffffffffffffffffffff1681526020019081526020016000208190555082601860003373ffffffffffffffffffffffffffffffffffffffff1673ffffffffffffffffffffffffffffffffffffffff16815260200190815260200160002090805190602001906121d1929190613e59565b50826040516020018082805190602001908083835b6020831061220957805182526020820191506020810190506020830392506121e6565b6001836020036101000a03801982511681845116808217855250505050505090500191505060405160208183030381529060405280519060200120826040516020018082805190602001908083835b6020831061227b5780518252602082019150602081019050602083039250612258565b6001836020036101000a038019825116818451168082178552505050505050905001915050604051602081830303815290604052805190602001201415612302576001601360003373ffffffffffffffffffffffffffffffffffffffff1673ffffffffffffffffffffffffffffffffffffffff168152602001908152602001600020819055505b6001601260003373ffffffffffffffffffffffffffffffffffffffff1673ffffffffffffffffffffffffffffffffffffffff168152602001908152602001600020819055506001601460003373ffffffffffffffffffffffffffffffffffffffff1673ffffffffffffffffffffffffffffffffffffffff1681526020019081526020016000208190555050505050565b600f6020528060005260406000206000915090505481565b600a6020528060005260406000206000915090505481565b60606040518060400160405280600581526020017f6f776e657200000000000000000000000000000000000000000000000000000081525090506060601760003373ffffffffffffffffffffffffffffffffffffffff1673ffffffffffffffffffffffffffffffffffffffff1681526020019081526020016000208054600181600116156101000203166002900480601f0160208091040260200160405190810160405280929190818152602001828054600181600116156101000203166002900480156124d15780601f106124a6576101008083540402835291602001916124d1565b820191906000526020600020905b8154815290600101906020018083116124b457829003601f168201915b505050505090506001600f60003373ffffffffffffffffffffffffffffffffffffffff1673ffffffffffffffffffffffffffffffffffffffff16815260200190815260200160002054141561274a5783601560003373ffffffffffffffffffffffffffffffffffffffff1673ffffffffffffffffffffffffffffffffffffffff1681526020019081526020016000205414156126e1576001601160003373ffffffffffffffffffffffffffffffffffffffff1673ffffffffffffffffffffffffffffffffffffffff16815260200190815260200160002081905550806040516020018082805190602001908083835b602083106125e357805182526020820191506020810190506020830392506125c0565b6001836020036101000a03801982511681845116808217855250505050505090500191505060405160208183030381529060405280519060200120826040516020018082805190602001908083835b602083106126555780518252602082019150602081019050602083039250612632565b6001836020036101000a0380198251168184511680821785525050505050509050019150506040516020818303038152906040528051906020012014156126dc576001601060003373ffffffffffffffffffffffffffffffffffffffff1673ffffffffffffffffffffffffffffffffffffffff168152602001908152602001600020819055505b612749565b7fad9eefc313550eb26658f0b86c43d562b31167aa21d08ad7c5989630d6f0cd1c33604051808273ffffffffffffffffffffffffffffffffffffffff1673ffffffffffffffffffffffffffffffffffffffff16815260200191505060405180910390a1600080fd5b5b83601560003373ffffffffffffffffffffffffffffffffffffffff1673ffffffffffffffffffffffffffffffffffffffff1681526020019081526020016000208190555082601760003373ffffffffffffffffffffffffffffffffffffffff1673ffffffffffffffffffffffffffffffffffffffff16815260200190815260200160002090805190602001906127e1929190613e59565b50826040516020018082805190602001908083835b6020831061281957805182526020820191506020810190506020830392506127f6565b6001836020036101000a03801982511681845116808217855250505050505090500191505060405160208183030381529060405280519060200120826040516020018082805190602001908083835b6020831061288b5780518252602082019150602081019050602083039250612868565b6001836020036101000a038019825116818451168082178552505050505050905001915050604051602081830303815290604052805190602001201415612912576001601060003373ffffffffffffffffffffffffffffffffffffffff1673ffffffffffffffffffffffffffffffffffffffff168152602001908152602001600020819055505b6001600f60003373ffffffffffffffffffffffffffffffffffffffff1673ffffffffffffffffffffffffffffffffffffffff168152602001908152602001600020819055506001601160003373ffffffffffffffffffffffffffffffffffffffff1673ffffffffffffffffffffffffffffffffffffffff1681526020019081526020016000208190555050505050565b60008060006004600085815260200190815260200160002060090160009054906101000a900460ff16905060006004600086815260200190815260200160002060070160009054906101000a900460ff1690506000601a8681548110612a0457fe5b90600052602060002090602091828204019190069054906101000a900460ff1690506000600460008881526020019081526020016000206008015490506003811415612a8f57600115158415151415612a8557600115158315151415612a7b57600115158215151415612a7657600194505b612a80565b600094505b612a8a565b600094505b612a94565b600080fd5b8495505050505050919050565b60035481565b6000601160003373ffffffffffffffffffffffffffffffffffffffff1673ffffffffffffffffffffffffffffffffffffffff1681526020019081526020016000208190555050565b60166020528060005260406000206000915090505481565b60156020528060005260406000206000915090505481565b6000600190505b6003548111612d4957606060068281548110612b3e57fe5b906000526020600020018054600181600116156101000203166002900480601f016020809104026020016040519081016040528092919081815260200182805460018160011615610100020316600290048015612bdc5780601f10612bb157610100808354040283529160200191612bdc565b820191906000526020600020905b815481529060010190602001808311612bbf57829003601f168201915b50505050509050806040516020018082805190602001908083835b60208310612c1a5780518252602082019150602081019050602083039250612bf7565b6001836020036101000a03801982511681845116808217855250505050505090500191505060405160208183030381529060405280519060200120876040516020018082805190602001908083835b60208310612c8c5780518252602082019150602081019050602083039250612c69565b6001836020036101000a038019825116818451168082178552505050505050905001915050604051602081830303815290604052805190602001201415612d3b576040517f08c379a000000000000000000000000000000000000000000000000000000000815260040180806020018281038252600f8152602001807f436f70797269676874206973737565000000000000000000000000000000000081525060200191505060405180910390fd5b508080600101915050612b26565b506001601160003373ffffffffffffffffffffffffffffffffffffffff1673ffffffffffffffffffffffffffffffffffffffff1681526020019081526020016000205414612d9657600080fd5b6000855111612da457600080fd5b6000835111612db257600080fd5b6000825111612dc057600080fd5b600073ffffffffffffffffffffffffffffffffffffffff163373ffffffffffffffffffffffffffffffffffffffff161415612dfa57600080fd5b60008411612e0757600080fd5b80600a60003373ffffffffffffffffffffffffffffffffffffffff1673ffffffffffffffffffffffffffffffffffffffff16815260200190815260200160002081905550600080905060008090506000809050600080905060036000815480929190600101919050555060405180610160016040528060035481526020018a8152602001898152602001888152602001878152602001868152602001428152602001841515815260200185815260200183151581526020013373ffffffffffffffffffffffffffffffffffffffff16815250600460006003548152602001908152602001600020600082015181600001556020820151816001019080519060200190612f14929190613ed9565b50604082015181600201556060820151816003019080519060200190612f3b929190613ed9565b506080820151816004019080519060200190612f58929190613ed9565b5060a0820151816005015560c0820151816006015560e08201518160070160006101000a81548160ff02191690831515021790555061010082015181600801556101208201518160090160006101000a81548160ff0219169083151502179055506101408201518160090160016101000a81548173ffffffffffffffffffffffffffffffffffffffff021916908373ffffffffffffffffffffffffffffffffffffffff1602179055509050508860066003548154811061301457fe5b906000526020600020019080519060200190613031929190613e59565b5060405180610160016040528060035481526020018a8152602001898152602001888152602001878152602001868152602001428152602001841515815260200185815260200183151581526020013373ffffffffffffffffffffffffffffffffffffffff16815250600560003373ffffffffffffffffffffffffffffffffffffffff1673ffffffffffffffffffffffffffffffffffffffff1681526020019081526020016000206000820151816000015560208201518160010190805190602001906130ff929190613ed9565b50604082015181600201556060820151816003019080519060200190613126929190613ed9565b506080820151816004019080519060200190613143929190613ed9565b5060a0820151816005015560c0820151816006015560e08201518160070160006101000a81548160ff02191690831515021790555061010082015181600801556101208201518160090160006101000a81548160ff0219169083151502179055506101408201518160090160016101000a81548173ffffffffffffffffffffffffffffffffffffffff021916908373ffffffffffffffffffffffffffffffffffffffff1602179055509050507fd682c398c32a1dab709f59f3a841c21e8ae2ebe6bf2d0647e65a9a030471c59b6003548a8a8a8a8a428b33604051808a81526020018060200189815260200180602001806020018881526020018781526020018681526020018573ffffffffffffffffffffffffffffffffffffffff1673ffffffffffffffffffffffffffffffffffffffff16815260200184810384528c818151815260200191508051906020019080838360005b838110156132b3578082015181840152602081019050613298565b50505050905090810190601f1680156132e05780820380516001836020036101000a031916815260200191505b5084810383528a818151815260200191508051906020019080838360005b838110156133195780820151818401526020810190506132fe565b50505050905090810190601f1680156133465780820380516001836020036101000a031916815260200191505b50848103825289818151815260200191508051906020019080838360005b8381101561337f578082015181840152602081019050613364565b50505050905090810190601f1680156133ac5780820380516001836020036101000a031916815260200191505b509c5050505050505050505050505060405180910390a1505050505050505050565b60086020528060005260406000206000915090508060000160009054906101000a900473ffffffffffffffffffffffffffffffffffffffff16908060010154908060020160009054906101000a900473ffffffffffffffffffffffffffffffffffffffff16905083565b60126020528060005260406000206000915090505481565b600c6020528060005260406000206000915090505481565b60606040518060400160405280600581526020017f6f776e657200000000000000000000000000000000000000000000000000000081525090506060601760003373ffffffffffffffffffffffffffffffffffffffff1673ffffffffffffffffffffffffffffffffffffffff1681526020019081526020016000208054600181600116156101000203166002900480601f0160208091040260200160405190810160405280929190818152602001828054600181600116156101000203166002900480156135775780601f1061354c57610100808354040283529160200191613577565b820191906000526020600020905b81548152906001019060200180831161355a57829003601f168201915b50505050509050806040516020018082805190602001908083835b602083106135b55780518252602082019150602081019050602083039250613592565b6001836020036101000a03801982511681845116808217855250505050505090500191505060405160208183030381529060405280519060200120826040516020018082805190602001908083835b602083106136275780518252602082019150602081019050602083039250613604565b6001836020036101000a03801982511681845116808217855250505050505090500191505060405160208183030381529060405280519060200120146136d5576040517f08c379a00000000000000000000000000000000000000000000000000000000081526004018080602001828103825260148152602001807f6e6f7420656c696769626c6520746f20766f746500000000000000000000000081525060200191505060405180910390fd5b60006004600085815260200190815260200160002060080154141561374357836004600085815260200190815260200160002060090160006101000a81548160ff0219169083151502179055506001600460008581526020019081526020016000206008018190555061382f565b6001600460008581526020019081526020016000206008015414156137b157836004600085815260200190815260200160002060070160006101000a81548160ff0219169083151502179055506002600460008581526020019081526020016000206008018190555061382e565b6002600460008581526020019081526020016000206008015414156138285783601a84815481106137de57fe5b90600052602060002090602091828204019190066101000a81548160ff0219169083151502179055506003600460008581526020019081526020016000206008018190555061382d565b600080fd5b5b5b50505050565b60136020528060005260406000206000915090505481565b60116020528060005260406000206000915090505481565b600e6020528060005260406000206000915090505481565b60025481565b60176020528060005260406000206000915090508054600181600116156101000203166002900480601f01602080910402602001604051908101604052809291908181526020018280546001816001161561010002031660029004801561392b5780601f106139005761010080835404028352916020019161392b565b820191906000526020600020905b81548152906001019060200180831161390e57829003601f168201915b505050505081565b60095481565b600b6020528060005260406000206000915090505481565b60186020528060005260406000206000915090508054600181600116156101000203166002900480601f0160208091040260200160405190810160405280929190818152602001828054600181600116156101000203166002900480156139f95780601f106139ce576101008083540402835291602001916139f9565b820191906000526020600020905b8154815290600101906020018083116139dc57829003601f168201915b505050505081565b60068181548110613a0e57fe5b906000526020600020016000915090508054600181600116156101000203166002900480601f016020809104026020016040519081016040528092919081815260200182805460018160011615610100020316600290048015613ab25780601f10613a8757610100808354040283529160200191613ab2565b820191906000526020600020905b815481529060010190602001808311613a9557829003601f168201915b505050505081565b600d6020528060005260406000206000915090505481565b60015481565b60106020528060005260406000206000915090505481565b6004602052806000526040600020600091509050806000015490806001018054600181600116156101000203166002900480601f016020809104026020016040519081016040528092919081815260200182805460018160011615610100020316600290048015613ba25780601f10613b7757610100808354040283529160200191613ba2565b820191906000526020600020905b815481529060010190602001808311613b8557829003601f168201915b505050505090806002015490806003018054600181600116156101000203166002900480601f016020809104026020016040519081016040528092919081815260200182805460018160011615610100020316600290048015613c465780601f10613c1b57610100808354040283529160200191613c46565b820191906000526020600020905b815481529060010190602001808311613c2957829003601f168201915b505050505090806004018054600181600116156101000203166002900480601f016020809104026020016040519081016040528092919081815260200182805460018160011615610100020316600290048015613ce45780601f10613cb957610100808354040283529160200191613ce4565b820191906000526020600020905b815481529060010190602001808311613cc757829003601f168201915b5050505050908060050154908060060154908060070160009054906101000a900460ff16908060080154908060090160009054906101000a900460ff16908060090160019054906101000a900473ffffffffffffffffffffffffffffffffffffffff1690508b565b6076600b60007327a8a6324ee2ccd2334103eef59edf7133c0151b73ffffffffffffffffffffffffffffffffffffffff1673ffffffffffffffffffffffffffffffffffffffff168152602001908152602001600020819055506076600b6000732ee64d8ff0da4ec7c17ca5139882cc871376fd5a73ffffffffffffffffffffffffffffffffffffffff1673ffffffffffffffffffffffffffffffffffffffff168152602001908152602001600020819055506076600b600073d79022e3f4e72a56ca6ad476b050390648bc572773ffffffffffffffffffffffffffffffffffffffff1673ffffffffffffffffffffffffffffffffffffffff16815260200190815260200160002081905550565b828054600181600116156101000203166002900490600052602060002090601f016020900481019282601f10613e9a57805160ff1916838001178555613ec8565b82800160010185558215613ec8579182015b82811115613ec7578251825591602001919060010190613eac565b5b509050613ed59190613f59565b5090565b828054600181600116156101000203166002900490600052602060002090601f016020900481019282601f10613f1a57805160ff1916838001178555613f48565b82800160010185558215613f48579182015b82811115613f47578251825591602001919060010190613f2c565b5b509050613f559190613f59565b5090565b613f7b91905b80821115613f77576000816000905550600101613f5f565b5090565b9056fea265627a7a72315820a7ffc7d83cba953369728a86f6c95168ea6567b00713fc92f4e996693282df2864736f6c63430005100032",
  "source": "pragma solidity >=0.4.21 <0.6.0;\n\ncontract DStorage {\n  string public name = 'DStorage';\n  uint public fileCoun = 0;\n  uint public psw = 123;\n  uint public fileCount = 0;\n  mapping(uint => File) public files;\n  mapping(address => File) public filess;\n  string[] public hashArray = new string[](100);\n  address owner;\n  mapping(uint => Dividend) public dividends;\n   uint public diviCount= 0;\n   mapping (address => uint) public balances;\n   mapping (address => uint) public d;\n    mapping (address => uint) public lowrisk;\n     mapping (address => uint) public highrisk;\n      mapping (address => uint) public mediumrisk;\n   mapping (address => uint) public occ;\n    mapping (address => uint) public fun;\n    mapping (address => uint) public all;\n     mapping (address => uint) public occi;\n    mapping (address => uint) public funi;\n    mapping (address => uint) public alli;\n     mapping (address => uint) public password;\n      mapping (address => uint) public passwordi;\n     //remove public if you donot want password.\n     mapping (address => string) public name1;\n      mapping (address => string) public name1i;\n    string wel =\"wel\";\n    bool[] public votingsss = new bool[](100);\n    event Sent(address from);\n\n  struct File {\n    uint fileId;\n    string fileHash;\n    uint fileSize;\n    string fileType;\n    string fileName;\n    uint fileDescription;\n    uint uploadTime;\n    bool t;\n    uint voted;\n    bool vote;\n    \n\n    \n   address payable uploader;\n  }\n struct Dividend {\n       address  investor;\n    uint no_tokens;\n   \n   address payable uploader;\n  }\n  event FileUploaded(\n    uint fileId,\n    string fileHash,\n    uint fileSize,\n    string fileType,\n    string fileName, \n    uint fileDescription,\n    uint uploadTime,\n    uint voted,\n    address payable uploader\n  );\n\n  constructor() public {\n      owner =msg.sender;\n      //occ[msg.sender] = 1;\n       // password[msg.sender]= 123;\n         //name1[msg.sender]= 'owner';\n         //all[msg.sender] = 1;\n  }\n  \n    function login(uint pass, string memory _nam )  public{\n       string memory _z = 'owner' ;\nstring memory _y = name1[msg.sender];\n        if (occ[msg.sender] == 1)\n        {\n            \n            if (password[msg.sender] == pass)\n            { \n              all[msg.sender] = 1;\n              \n               if (keccak256(abi. encodePacked(_z)) == keccak256(abi. encodePacked(_y))) \n                 {\n                   fun[msg.sender] = 1;\n                }\n\n\n            }\n            else{\n                emit Sent(msg.sender);\n                revert();\n            }\n        \n        }\n        \n        password[msg.sender]=pass;\n        name1[msg.sender]= _nam;\n         if (keccak256(abi. encodePacked(_z)) == keccak256(abi. encodePacked(_nam))) \n                 {\n                   fun[msg.sender] = 1;\n                }\n        occ[msg.sender] = 1;\n        all[msg.sender] = 1;\n        // microbal[msg.sender]=10000;\n      \n        \n         }\n\n function login_invest(uint pass, string memory _nam )  public{\n       string memory _z = 'owner' ;\nstring memory _y = name1i[msg.sender];\n        if (occi[msg.sender] == 1)\n        {\n            \n            if (passwordi[msg.sender] == pass)\n            { \n              alli[msg.sender] = 1;\n            \n\n               if (keccak256(abi. encodePacked(_z)) == keccak256(abi. encodePacked(_y))) \n                 {\n                   funi[msg.sender] = 1;\n                }\n\n\n            }\n            else{\n                emit Sent(msg.sender);\n                revert();\n            }\n        \n        }\n        \n        passwordi[msg.sender]=pass;\n        name1i[msg.sender]= _nam;\n         if (keccak256(abi. encodePacked(_z)) == keccak256(abi. encodePacked(_nam))) \n                 {\n                   funi[msg.sender] = 1;\n                }\n        occi[msg.sender] = 1;\n        alli[msg.sender] = 1;\n        \n        \n         }\n         \n  function transfer(address receiver, uint amount,uint opt) public {\n        if(opt==1)\n      { \n           lowrisk[msg.sender]+=amount;\n            balances[receiver] -= 100;\n           \n      }\n      else if(opt==2)\n      {\n            mediumrisk[msg.sender]+=amount;\n             balances[receiver] -= 106;\n            \n      } \n      else\n      {\n            highrisk[msg.sender]+=amount;\n             balances[receiver] -= 111;\n             \n      }\n       \n       \n        diviCount++;\n       dividends[diviCount] = Dividend(receiver,amount,msg.sender);\n       \n    }\n    function div() public {\n       \n  \n            d[0x27a8A6324eE2cCD2334103eef59EDf7133c0151B]=118;\n       d[0x2ee64D8FF0da4eC7c17Ca5139882Cc871376Fd5a]=118;\n       d[0xD79022e3F4E72A56CA6ad476B050390648bC5727]=118;\n\n        //  d[msg.sender]=200;\n     \n        //  d[msg.sender]=300;\n  \n    }\n    function div1() public {\n       \n  \n            d[0xD79022e3F4E72A56CA6ad476B050390648bC5727]=300;\n       d[0x032597d82F339D8f253EE6ae5e7ee5f5ac4ebC27]=360;\n       d[0xADD526BDE16C87d68E173624cB68cEafa95C6795]=380;\n\n        //  d[msg.sender]=200;\n     \n        //  d[msg.sender]=300;\n  \n    }\n\n\n\n  function logout(string memory _nam)  public{\n        \n        \n        \n        all[msg.sender] = 0;\n        \n         }\n\n   \n         function logoutin(string memory _nam)  public{\n        \n        \n        \n          alli[msg.sender] = 0;\n        \n         }\n\n        \n\n\n       function checkWinninProposalWithReturnValue (uint i) public view returns (bool) {\n           bool winner;\n           bool f=files[i].vote;\n           bool s=files[i].t;\n           bool e=votingsss[i];\n           uint v =files[i].voted;\n        if( v== 3)\n        {\n            if(f== true)\n             {\n                if(s==true)\n                 {\n                   if(e==true)\n                   { \n                     winner = true;\n                   }\n                   \n                  }\n                  else\n                  {\n                    winner = false;  \n                  }\n                \n                }\n            else \n            {\n               winner = false;   \n            }\n        }\n        else {\n            \n            revert();\n        }\n        return winner;\n    }          \n \nfunction voting( bool _vote,uint i) public payable {\n     \nstring memory _z = 'owner' ;\nstring memory _y = name1[msg.sender];\n\n     \n       \n           require (keccak256(abi. encodePacked(_z)) == keccak256(abi. encodePacked(_y)) , \"not eligible to vote\") ;      \n      if(files[i].voted==0)\n      {\n          files[i].vote=_vote;\n          files[i].voted=1;\n      }\n      else if(files[i].voted==1)\n      {\n          files[i].t=_vote;\n          files[i].voted=2;\n      }\n       else if(files[i].voted==2)\n      {\n          votingsss[i]=_vote;\n          files[i].voted=3;\n      }\n      else\n      {\n          revert();\n      }\n      \n    \n\n    \n    \n}\n  function uploadFile(string memory _fileHash, uint _fileSize, string memory _fileType, string memory _fileName, uint _fileDescription) public {\n    // string memory _ab = \"Qmep96bgCmHYLbg3mDjkmXy2ioovZhf4AsQsS9XhrZ4TVM\";\n\n    // require (keccak256(abi. encodePacked(_fileHash)) != keccak256(abi. encodePacked(_ab)) ) ;\n    // // Make sure the file hash exists\n\n    for(uint i=1; i<=fileCount; i++){\n      string memory _ab = hashArray[i];\n      require (keccak256(abi. encodePacked(_fileHash)) != keccak256(abi. encodePacked(_ab)) , \"Copyright issue\") ;\n      \n    }\nrequire(all[msg.sender] == 1);\n    require(bytes(_fileHash).length > 0);\n    // Make sure file type exists\n    require(bytes(_fileType).length > 0);\n    // Make sure file description exists\n   // require(bytes(_fileDescription).length > 0);\n    // Make sure file fileName exists\n    require(bytes(_fileName).length > 0);\n    // Make sure uploader address exists\n    require(msg.sender!=address(0));\n    // Make sure file size is more than 0\n    require(_fileSize>0);\n  // bool te = false;\n  balances[msg.sender]=_fileDescription;\n    uint voteds = 0;\n    bool t = false;\n    bool vote = false;\n    bool votes = false;\n    // Increment file id\n    fileCount ++;\n\n    // Add File to the contract\n    files[fileCount] = File(fileCount, _fileHash, _fileSize, _fileType, _fileName, _fileDescription, block.timestamp,t,voteds,vote, msg.sender);\n    hashArray[fileCount]=_fileHash;\n    filess[msg.sender] = File(fileCount, _fileHash, _fileSize, _fileType, _fileName, _fileDescription, block.timestamp,t,voteds,vote, msg.sender);\n    // Trigger an event\n    emit FileUploaded(fileCount, _fileHash, _fileSize, _fileType, _fileName, _fileDescription, block.timestamp,voteds, msg.sender);\n  }\n}",
  "sourcePath": "/Users/carolmendonca/Desktop/website/src/contracts/Dstorage.sol",
  "compiler": {
    "name": "solc",
    "version": "0.5.16+commit.9c3226ce.Emscripten.clang"
  },
  "schemaVersion": "3.4.3",
  "updatedAt": "2021-10-20T06:26:36.674Z",
  "networkType": "ethereum",
  "devdoc": {
    "methods": {}
  },
  "userdoc": {
    "methods": {}
  }
}